{
  "contractName": "SimpleStorage",
  "abi": [
    {
      "constant": true,
      "inputs": [],
      "name": "count",
      "outputs": [
        {
          "name": "",
          "type": "uint8"
        }
      ],
      "payable": false,
      "stateMutability": "view",
      "type": "function"
    },
    {
      "constant": false,
      "inputs": [
        {
          "name": "x",
          "type": "uint8"
        }
      ],
      "name": "set",
      "outputs": [],
      "payable": false,
      "stateMutability": "nonpayable",
      "type": "function"
    },
    {
      "constant": true,
      "inputs": [],
      "name": "increment",
      "outputs": [
        {
          "name": "",
          "type": "uint8"
        }
      ],
      "payable": false,
      "stateMutability": "view",
      "type": "function"
    },
    {
      "constant": true,
      "inputs": [],
      "name": "get",
      "outputs": [
        {
          "name": "",
          "type": "uint8"
        }
      ],
      "payable": false,
      "stateMutability": "view",
      "type": "function"
    }
  ],
  "bytecode": "0x608060405260126000806101000a81548160ff021916908360ff16021790555034801561002b57600080fd5b506101dc8061003b6000396000f300608060405260043610610062576000357c0100000000000000000000000000000000000000000000000000000000900463ffffffff16806306661abd1461006757806324b8ba5f146100985780636d4ce63c146100c8578063d09de08a146100f9575b600080fd5b34801561007357600080fd5b5061007c61012a565b604051808260ff1660ff16815260200191505060405180910390f35b3480156100a457600080fd5b506100c6600480360381019080803560ff16906020019092919050505061013c565b005b3480156100d457600080fd5b506100dd610159565b604051808260ff1660ff16815260200191505060405180910390f35b34801561010557600080fd5b5061010e61016f565b604051808260ff1660ff16815260200191505060405180910390f35b6000809054906101000a900460ff1681565b806000806101000a81548160ff021916908360ff16021790555050565b60008060009054906101000a900460ff16905090565b600060016000809054906101000a900460ff16016000806101000a81548160ff021916908360ff1602179055506000809054906101000a900460ff169050905600a165627a7a723058207ca96c31a7ccb284e27bf985360b05ce38003944a4f409e010304742d55b5f6d0029",
  "source": "pragma solidity ^0.4.17;\n\ncontract SimpleStorage {\n  uint8 public count = 18;\n\n  function set(uint8 x) public {\n    count = x;\n  }\n\n  function increment() public view returns (uint8) {\n    count = count + 1;\n    return count;\n  }\n\n\n  function get() public view returns (uint8) {\n    return count;\n  }\n}\n",
  "sourcePath": "/Users/anushajain/Documents/Every/contracts/SimpleStorage.sol",
  "compiler": {
    "name": "solc",
    "version": "0.4.24+commit.e67f0147.Emscripten.clang"
  },
  "schemaVersion": "2.0.1",
  "updatedAt": "2018-12-07T05:44:19.405Z"
}