{
  "contractName": "SimpleStorage",
  "abi": [
    {
      "constant": true,
      "inputs": [],
      "name": "count",
      "outputs": [
        {
          "name": "",
          "type": "uint256"
        }
      ],
      "payable": false,
      "stateMutability": "view",
      "type": "function"
    },
    {
      "constant": false,
      "inputs": [
        {
          "name": "x",
          "type": "uint256"
        }
      ],
      "name": "set",
      "outputs": [],
      "payable": false,
      "stateMutability": "nonpayable",
      "type": "function"
    },
    {
      "constant": true,
      "inputs": [],
      "name": "increment",
      "outputs": [
        {
          "name": "",
          "type": "uint256"
        }
      ],
      "payable": false,
      "stateMutability": "view",
      "type": "function"
    },
    {
      "constant": true,
      "inputs": [],
      "name": "get",
      "outputs": [
        {
          "name": "",
          "type": "uint256"
        }
      ],
      "payable": false,
      "stateMutability": "view",
      "type": "function"
    }
  ],
  "bytecode": "0x608060405234801561001057600080fd5b50610170806100206000396000f300608060405260043610610062576000357c0100000000000000000000000000000000000000000000000000000000900463ffffffff16806306661abd1461006757806360fe47b1146100925780636d4ce63c146100bf578063d09de08a146100ea575b600080fd5b34801561007357600080fd5b5061007c610115565b6040518082815260200191505060405180910390f35b34801561009e57600080fd5b506100bd6004803603810190808035906020019092919050505061011b565b005b3480156100cb57600080fd5b506100d4610125565b6040518082815260200191505060405180910390f35b3480156100f657600080fd5b506100ff61012e565b6040518082815260200191505060405180910390f35b60005481565b8060008190555050565b60006012905090565b60006001600054016000819055506000549050905600a165627a7a72305820d9f2c925c425411619285172268eddf8959e7fd3637ea16667ef28e794f4f6ed0029",
  "source": "pragma solidity ^0.4.17;\n\ncontract SimpleStorage {\n  uint256 public count;\n\n  function set(uint x) public {\n    count = x;\n  }\n\n  function increment() public view returns (uint) {\n    count = count + 1;\n    return count;\n  }\n\n\n  function get() public view returns (uint) {\n    return 18;\n  }\n}\n",
  "sourcePath": "/Users/anushajain/Documents/Every/contracts/SimpleStorage.sol",
  "compiler": {
    "name": "solc",
    "version": "0.4.24+commit.e67f0147.Emscripten.clang"
  },
  "schemaVersion": "2.0.1",
  "updatedAt": "2018-12-07T05:02:17.249Z"
}